{
  "contractName": "payTrust",
  "abi": [
    {
      "inputs": [
        {
          "internalType": "address",
          "name": "_flightToken",
          "type": "address"
        },
        {
          "internalType": "address",
          "name": "_usdc",
          "type": "address"
        }
      ],
      "stateMutability": "nonpayable",
      "type": "constructor"
    },
    {
      "anonymous": false,
      "inputs": [
        {
          "indexed": true,
          "internalType": "string",
          "name": "name",
          "type": "string"
        },
        {
          "indexed": true,
          "internalType": "uint256",
          "name": "nextCustomerId",
          "type": "uint256"
        }
      ],
      "name": "DepositSuccessful",
      "type": "event"
    },
    {
      "anonymous": false,
      "inputs": [
        {
          "indexed": true,
          "internalType": "address",
          "name": "previousOwner",
          "type": "address"
        },
        {
          "indexed": true,
          "internalType": "address",
          "name": "newOwner",
          "type": "address"
        }
      ],
      "name": "OwnershipTransferred",
      "type": "event"
    },
    {
      "anonymous": false,
      "inputs": [
        {
          "indexed": true,
          "internalType": "uint256",
          "name": "id",
          "type": "uint256"
        },
        {
          "indexed": false,
          "internalType": "uint256",
          "name": "amount",
          "type": "uint256"
        }
      ],
      "name": "RedeemSuccessful",
      "type": "event"
    },
    {
      "inputs": [],
      "name": "USDC",
      "outputs": [
        {
          "internalType": "contract IERC20",
          "name": "",
          "type": "address"
        }
      ],
      "stateMutability": "view",
      "type": "function",
      "constant": true
    },
    {
      "inputs": [
        {
          "internalType": "uint256",
          "name": "",
          "type": "uint256"
        }
      ],
      "name": "customers",
      "outputs": [
        {
          "internalType": "uint256",
          "name": "id",
          "type": "uint256"
        },
        {
          "internalType": "string",
          "name": "name",
          "type": "string"
        },
        {
          "internalType": "address payable",
          "name": "customerAddress",
          "type": "address"
        },
        {
          "internalType": "uint256",
          "name": "redeemEndTime1",
          "type": "uint256"
        },
        {
          "internalType": "uint256",
          "name": "redeemEndTime2",
          "type": "uint256"
        },
        {
          "internalType": "uint256",
          "name": "redeemEndTime3",
          "type": "uint256"
        },
        {
          "internalType": "uint256",
          "name": "hardEndTime",
          "type": "uint256"
        },
        {
          "internalType": "uint256",
          "name": "customerBalanceStableCoin",
          "type": "uint256"
        },
        {
          "internalType": "uint256",
          "name": "customerBalanceTokens",
          "type": "uint256"
        }
      ],
      "stateMutability": "view",
      "type": "function",
      "constant": true
    },
    {
      "inputs": [],
      "name": "deadlineToRedeem",
      "outputs": [
        {
          "internalType": "uint256",
          "name": "",
          "type": "uint256"
        }
      ],
      "stateMutability": "view",
      "type": "function",
      "constant": true
    },
    {
      "inputs": [],
      "name": "flightToken",
      "outputs": [
        {
          "internalType": "contract FlightToken",
          "name": "",
          "type": "address"
        }
      ],
      "stateMutability": "view",
      "type": "function",
      "constant": true
    },
    {
      "inputs": [],
      "name": "nextCustomerId",
      "outputs": [
        {
          "internalType": "uint256",
          "name": "",
          "type": "uint256"
        }
      ],
      "stateMutability": "view",
      "type": "function",
      "constant": true
    },
    {
      "inputs": [],
      "name": "owner",
      "outputs": [
        {
          "internalType": "address",
          "name": "",
          "type": "address"
        }
      ],
      "stateMutability": "view",
      "type": "function",
      "constant": true
    },
    {
      "inputs": [],
      "name": "redeemTime1",
      "outputs": [
        {
          "internalType": "uint256",
          "name": "",
          "type": "uint256"
        }
      ],
      "stateMutability": "view",
      "type": "function",
      "constant": true
    },
    {
      "inputs": [],
      "name": "redeemTime2",
      "outputs": [
        {
          "internalType": "uint256",
          "name": "",
          "type": "uint256"
        }
      ],
      "stateMutability": "view",
      "type": "function",
      "constant": true
    },
    {
      "inputs": [],
      "name": "redeemTime3",
      "outputs": [
        {
          "internalType": "uint256",
          "name": "",
          "type": "uint256"
        }
      ],
      "stateMutability": "view",
      "type": "function",
      "constant": true
    },
    {
      "inputs": [],
      "name": "refundAmount2",
      "outputs": [
        {
          "internalType": "uint256",
          "name": "",
          "type": "uint256"
        }
      ],
      "stateMutability": "view",
      "type": "function",
      "constant": true
    },
    {
      "inputs": [],
      "name": "refundAmount3",
      "outputs": [
        {
          "internalType": "uint256",
          "name": "",
          "type": "uint256"
        }
      ],
      "stateMutability": "view",
      "type": "function",
      "constant": true
    },
    {
      "inputs": [],
      "name": "refundAmount4",
      "outputs": [
        {
          "internalType": "uint256",
          "name": "",
          "type": "uint256"
        }
      ],
      "stateMutability": "view",
      "type": "function",
      "constant": true
    },
    {
      "inputs": [],
      "name": "renounceOwnership",
      "outputs": [],
      "stateMutability": "nonpayable",
      "type": "function"
    },
    {
      "inputs": [],
      "name": "totalAmountEthForWithdrawal",
      "outputs": [
        {
          "internalType": "uint256",
          "name": "",
          "type": "uint256"
        }
      ],
      "stateMutability": "view",
      "type": "function",
      "constant": true
    },
    {
      "inputs": [
        {
          "internalType": "address",
          "name": "newOwner",
          "type": "address"
        }
      ],
      "name": "transferOwnership",
      "outputs": [],
      "stateMutability": "nonpayable",
      "type": "function"
    },
    {
      "inputs": [
        {
          "internalType": "uint256",
          "name": "time1",
          "type": "uint256"
        },
        {
          "internalType": "uint256",
          "name": "time2",
          "type": "uint256"
        },
        {
          "internalType": "uint256",
          "name": "time3",
          "type": "uint256"
        },
        {
          "internalType": "uint256",
          "name": "_deadlineToRedeem",
          "type": "uint256"
        }
      ],
      "name": "resetRedeemTime",
      "outputs": [],
      "stateMutability": "nonpayable",
      "type": "function"
    },
    {
      "inputs": [
        {
          "internalType": "uint256",
          "name": "refund2",
          "type": "uint256"
        },
        {
          "internalType": "uint256",
          "name": "refund3",
          "type": "uint256"
        },
        {
          "internalType": "uint256",
          "name": "refund4",
          "type": "uint256"
        }
      ],
      "name": "setRefundAmount",
      "outputs": [],
      "stateMutability": "nonpayable",
      "type": "function"
    },
    {
      "inputs": [
        {
          "internalType": "string",
          "name": "name",
          "type": "string"
        },
        {
          "internalType": "uint256",
          "name": "tokensToMint",
          "type": "uint256"
        },
        {
          "internalType": "uint256",
          "name": "stablecoinAmount",
          "type": "uint256"
        },
        {
          "internalType": "address payable",
          "name": "customerAddress",
          "type": "address"
        }
      ],
      "name": "deposit",
      "outputs": [],
      "stateMutability": "payable",
      "type": "function",
      "payable": true
    },
    {
      "inputs": [
        {
          "internalType": "uint256",
          "name": "id",
          "type": "uint256"
        },
        {
          "internalType": "uint256",
          "name": "amount",
          "type": "uint256"
        }
      ],
      "name": "redeem",
      "outputs": [],
      "stateMutability": "nonpayable",
      "type": "function"
    },
    {
      "inputs": [
        {
          "internalType": "uint256",
          "name": "id",
          "type": "uint256"
        }
      ],
      "name": "withdrawStableCoin",
      "outputs": [],
      "stateMutability": "nonpayable",
      "type": "function"
    },
    {
      "inputs": [],
      "name": "calculateAmoutOfAllStableCoinForWithdrawal",
      "outputs": [],
      "stateMutability": "nonpayable",
      "type": "function"
    },
    {
      "inputs": [],
      "name": "withdrawAllStableCoin",
      "outputs": [],
      "stateMutability": "nonpayable",
      "type": "function"
    }
  ],
  "bytecode": "0x608060405234801561001057600080fd5b506040516125743803806125748339818101604052604081101561003357600080fd5b810190808051906020019092919080519060200190929190505050600061005e61018560201b60201c565b9050806000806101000a81548173ffffffffffffffffffffffffffffffffffffffff021916908373ffffffffffffffffffffffffffffffffffffffff1602179055508073ffffffffffffffffffffffffffffffffffffffff16600073ffffffffffffffffffffffffffffffffffffffff167f8be0079c531659141344cd1fd0a4f28419497f9722a3daafe3b4186f6b6457e060405160405180910390a35081600260006101000a81548173ffffffffffffffffffffffffffffffffffffffff021916908373ffffffffffffffffffffffffffffffffffffffff16021790555080600160006101000a81548173ffffffffffffffffffffffffffffffffffffffff021916908373ffffffffffffffffffffffffffffffffffffffff160217905550505061018d565b600033905090565b6123d88061019c6000396000f3fe6080604052600436106101355760003560e01c806378ba83ec116100ab57806394e8eabd1161006f57806394e8eabd14610558578063c0abda2a14610583578063def2edd114610685578063f2184509146106b0578063f2fde38b146106c7578063f67b99be1461071857610135565b806378ba83ec1461043b5780637cbc2373146104665780637de5ca04146104ab57806389a30271146104d65780638da5cb5b1461051757610135565b8063541126ae116100fd578063541126ae1461022157806363e1eaa51461024c5780636a78c9cc1461028d5780636aeea991146102dc578063715018a6146103cb5780637555a84b146103e257610135565b80630155e8161461013a5780631a8f71b8146101655780631d4d24e9146101a0578063391f8ded146101cb5780633e380573146101f6575b600080fd5b34801561014657600080fd5b5061014f61072f565b6040518082815260200191505060405180910390f35b34801561017157600080fd5b5061019e6004803603602081101561018857600080fd5b8101908080359060200190929190505050610735565b005b3480156101ac57600080fd5b506101b5610a39565b6040518082815260200191505060405180910390f35b3480156101d757600080fd5b506101e0610a3f565b6040518082815260200191505060405180910390f35b34801561020257600080fd5b5061020b610a45565b6040518082815260200191505060405180910390f35b34801561022d57600080fd5b50610236610a4b565b6040518082815260200191505060405180910390f35b34801561025857600080fd5b50610261610a51565b604051808273ffffffffffffffffffffffffffffffffffffffff16815260200191505060405180910390f35b34801561029957600080fd5b506102da600480360360608110156102b057600080fd5b81019080803590602001909291908035906020019092919080359060200190929190505050610a77565b005b6103c9600480360360808110156102f257600080fd5b810190808035906020019064010000000081111561030f57600080fd5b82018360208201111561032157600080fd5b8035906020019184600183028401116401000000008311171561034357600080fd5b91908080601f016020809104026020016040519081016040528093929190818152602001838380828437600081840152601f19601f8201169050808301925050505050505091929192908035906020019092919080359060200190929190803573ffffffffffffffffffffffffffffffffffffffff169060200190929190505050610b59565b005b3480156103d757600080fd5b506103e0610f8b565b005b3480156103ee57600080fd5b506104396004803603608081101561040557600080fd5b8101908080359060200190929190803590602001909291908035906020019092919080359060200190929190505050611111565b005b34801561044757600080fd5b506104506111fb565b6040518082815260200191505060405180910390f35b34801561047257600080fd5b506104a96004803603604081101561048957600080fd5b810190808035906020019092919080359060200190929190505050611201565b005b3480156104b757600080fd5b506104c06114f7565b6040518082815260200191505060405180910390f35b3480156104e257600080fd5b506104eb6114fd565b604051808273ffffffffffffffffffffffffffffffffffffffff16815260200191505060405180910390f35b34801561052357600080fd5b5061052c611523565b604051808273ffffffffffffffffffffffffffffffffffffffff16815260200191505060405180910390f35b34801561056457600080fd5b5061056d61154c565b6040518082815260200191505060405180910390f35b34801561058f57600080fd5b506105bc600480360360208110156105a657600080fd5b8101908080359060200190929190505050611552565b604051808a8152602001806020018973ffffffffffffffffffffffffffffffffffffffff16815260200188815260200187815260200186815260200185815260200184815260200183815260200182810382528a818151815260200191508051906020019080838360005b83811015610642578082015181840152602081019050610627565b50505050905090810190601f16801561066f5780820380516001836020036101000a031916815260200191505b509a505050505050505050505060405180910390f35b34801561069157600080fd5b5061069a611658565b6040518082815260200191505060405180910390f35b3480156106bc57600080fd5b506106c561165e565b005b3480156106d357600080fd5b50610716600480360360208110156106ea57600080fd5b81019080803573ffffffffffffffffffffffffffffffffffffffff1690602001909291905050506117a4565b005b34801561072457600080fd5b5061072d6119af565b005b600a5481565b61073d611c27565b73ffffffffffffffffffffffffffffffffffffffff1660008054906101000a900473ffffffffffffffffffffffffffffffffffffffff1673ffffffffffffffffffffffffffffffffffffffff16146107fd576040517f08c379a00000000000000000000000000000000000000000000000000000000081526004018080602001828103825260208152602001807f4f776e61626c653a2063616c6c6572206973206e6f7420746865206f776e657281525060200191505060405180910390fd5b600060036000838152602001908152602001600020600701541161082057600080fd5b6003600082815260200190815260200160002060060154421161084257600080fd5b600060036000838152602001908152602001600020600701549050600160009054906101000a900473ffffffffffffffffffffffffffffffffffffffff1673ffffffffffffffffffffffffffffffffffffffff1663095ea7b330836040518363ffffffff1660e01b8152600401808373ffffffffffffffffffffffffffffffffffffffff16815260200182815260200192505050602060405180830381600087803b1580156108f057600080fd5b505af1158015610904573d6000803e3d6000fd5b505050506040513d602081101561091a57600080fd5b810190808051906020019092919050505050600160009054906101000a900473ffffffffffffffffffffffffffffffffffffffff1673ffffffffffffffffffffffffffffffffffffffff1663a9059cbb6003600085815260200190815260200160002060020160009054906101000a900473ffffffffffffffffffffffffffffffffffffffff16836040518363ffffffff1660e01b8152600401808373ffffffffffffffffffffffffffffffffffffffff16815260200182815260200192505050602060405180830381600087803b1580156109f557600080fd5b505af1158015610a09573d6000803e3d6000fd5b505050506040513d6020811015610a1f57600080fd5b810190808051906020019092919050505050600090505050565b60085481565b60095481565b600b5481565b60065481565b600260009054906101000a900473ffffffffffffffffffffffffffffffffffffffff1681565b610a7f611c27565b73ffffffffffffffffffffffffffffffffffffffff1660008054906101000a900473ffffffffffffffffffffffffffffffffffffffff1673ffffffffffffffffffffffffffffffffffffffff1614610b3f576040517f08c379a00000000000000000000000000000000000000000000000000000000081526004018080602001828103825260208152602001807f4f776e61626c653a2063616c6c6572206973206e6f7420746865206f776e657281525060200191505060405180910390fd5b8260098190555081600a8190555080600b81905550505050565b60008211610bb2576040517f08c379a000000000000000000000000000000000000000000000000000000000815260040180806020018281038252602481526020018061237f6024913960400191505060405180910390fd5b60006005549050600060065490506000600754905060006008549050610be14285611c2f90919063ffffffff16565b9350610bf64284611c2f90919063ffffffff16565b9250610c0b4283611c2f90919063ffffffff16565b9150610c204282611c2f90919063ffffffff16565b905060405180610120016040528060045481526020018981526020018673ffffffffffffffffffffffffffffffffffffffff16815260200185815260200184815260200183815260200182815260200187815260200188815250600360006004548152602001908152602001600020600082015181600001556020820151816001019080519060200190610cb5929190612226565b5060408201518160020160006101000a81548173ffffffffffffffffffffffffffffffffffffffff021916908373ffffffffffffffffffffffffffffffffffffffff160217905550606082015181600301556080820151816004015560a0820151816005015560c0820151816006015560e082015181600701556101008201518160080155905050600160009054906101000a900473ffffffffffffffffffffffffffffffffffffffff1673ffffffffffffffffffffffffffffffffffffffff166323b872dd3330896040518463ffffffff1660e01b8152600401808473ffffffffffffffffffffffffffffffffffffffff1681526020018373ffffffffffffffffffffffffffffffffffffffff1681526020018281526020019350505050602060405180830381600087803b158015610dee57600080fd5b505af1158015610e02573d6000803e3d6000fd5b505050506040513d6020811015610e1857600080fd5b810190808051906020019092919050505050600260009054906101000a900473ffffffffffffffffffffffffffffffffffffffff1673ffffffffffffffffffffffffffffffffffffffff166340c10f1930896040518363ffffffff1660e01b8152600401808373ffffffffffffffffffffffffffffffffffffffff16815260200182815260200192505050600060405180830381600087803b158015610ebd57600080fd5b505af1158015610ed1573d6000803e3d6000fd5b50505050600454886040518082805190602001908083835b60208310610f0c5780518252602082019150602081019050602083039250610ee9565b6001836020036101000a03801982511681845116808217855250505050505090500191505060405180910390207f0bbc915e70165a1753811b3b69f88c8c4fce7890aa52b78024f87e07be22d45360405160405180910390a3610f7b6001600454611c2f90919063ffffffff16565b6004819055505050505050505050565b610f93611c27565b73ffffffffffffffffffffffffffffffffffffffff1660008054906101000a900473ffffffffffffffffffffffffffffffffffffffff1673ffffffffffffffffffffffffffffffffffffffff1614611053576040517f08c379a00000000000000000000000000000000000000000000000000000000081526004018080602001828103825260208152602001807f4f776e61626c653a2063616c6c6572206973206e6f7420746865206f776e657281525060200191505060405180910390fd5b600073ffffffffffffffffffffffffffffffffffffffff1660008054906101000a900473ffffffffffffffffffffffffffffffffffffffff1673ffffffffffffffffffffffffffffffffffffffff167f8be0079c531659141344cd1fd0a4f28419497f9722a3daafe3b4186f6b6457e060405160405180910390a360008060006101000a81548173ffffffffffffffffffffffffffffffffffffffff021916908373ffffffffffffffffffffffffffffffffffffffff160217905550565b611119611c27565b73ffffffffffffffffffffffffffffffffffffffff1660008054906101000a900473ffffffffffffffffffffffffffffffffffffffff1673ffffffffffffffffffffffffffffffffffffffff16146111d9576040517f08c379a00000000000000000000000000000000000000000000000000000000081526004018080602001828103825260208152602001807f4f776e61626c653a2063616c6c6572206973206e6f7420746865206f776e657281525060200191505060405180910390fd5b8360058190555082600681905550816007819055508060088190555050505050565b60075481565b8060036000848152602001908152602001600020600801541015611270576040517f08c379a000000000000000000000000000000000000000000000000000000000815260040180806020018281038252604081526020018061231e6040913960400191505060405180910390fd5b600360008381526020019081526020016000206006015442106112fb576040517f08c379a00000000000000000000000000000000000000000000000000000000081526004018080602001828103825260188152602001807f596f75722072656465656d2074696d65206973206f766572000000000000000081525060200191505060405180910390fd5b6103e8811015611356576040517f08c379a00000000000000000000000000000000000000000000000000000000081526004018080602001828103825260268152602001806122f86026913960400191505060405180910390fd5b60036000838152602001908152602001600020600301544210156113845761137f82600a611cb7565b611410565b60036000838152602001908152602001600020600401544210156113b3576113ae82600954611cb7565b61140f565b60036000838152602001908152602001600020600501544210156113e2576113dd82600a54611cb7565b61140e565b600360008381526020019081526020016000206006015442101561140d5761140c82600b54611cb7565b5b5b5b5b600260009054906101000a900473ffffffffffffffffffffffffffffffffffffffff1673ffffffffffffffffffffffffffffffffffffffff16639dc29fac30836040518363ffffffff1660e01b8152600401808373ffffffffffffffffffffffffffffffffffffffff16815260200182815260200192505050600060405180830381600087803b1580156114a357600080fd5b505af11580156114b7573d6000803e3d6000fd5b50505050817f6a57f287981fd1febbbdc93e2b7ee9c6c441bd052effd191274237362b9de4ba826040518082815260200191505060405180910390a25050565b600c5481565b600160009054906101000a900473ffffffffffffffffffffffffffffffffffffffff1681565b60008060009054906101000a900473ffffffffffffffffffffffffffffffffffffffff16905090565b60045481565b6003602052806000526040600020600091509050806000015490806001018054600181600116156101000203166002900480601f0160208091040260200160405190810160405280929190818152602001828054600181600116156101000203166002900480156116045780601f106115d957610100808354040283529160200191611604565b820191906000526020600020905b8154815290600101906020018083116115e757829003601f168201915b5050505050908060020160009054906101000a900473ffffffffffffffffffffffffffffffffffffffff16908060030154908060040154908060050154908060060154908060070154908060080154905089565b60055481565b611666611c27565b73ffffffffffffffffffffffffffffffffffffffff1660008054906101000a900473ffffffffffffffffffffffffffffffffffffffff1673ffffffffffffffffffffffffffffffffffffffff1614611726576040517f08c379a00000000000000000000000000000000000000000000000000000000081526004018080602001828103825260208152602001807f4f776e61626c653a2063616c6c6572206973206e6f7420746865206f776e657281525060200191505060405180910390fd5b60005b6004548110156117a1576003600082815260200190815260200160002060060154421115611794576003600082815260200190815260200160002060070154600c60008282540192505081905550600060036000838152602001908152602001600020600701819055505b8080600101915050611729565b50565b6117ac611c27565b73ffffffffffffffffffffffffffffffffffffffff1660008054906101000a900473ffffffffffffffffffffffffffffffffffffffff1673ffffffffffffffffffffffffffffffffffffffff161461186c576040517f08c379a00000000000000000000000000000000000000000000000000000000081526004018080602001828103825260208152602001807f4f776e61626c653a2063616c6c6572206973206e6f7420746865206f776e657281525060200191505060405180910390fd5b600073ffffffffffffffffffffffffffffffffffffffff168173ffffffffffffffffffffffffffffffffffffffff1614156118f2576040517f08c379a00000000000000000000000000000000000000000000000000000000081526004018080602001828103825260268152602001806122d26026913960400191505060405180910390fd5b8073ffffffffffffffffffffffffffffffffffffffff1660008054906101000a900473ffffffffffffffffffffffffffffffffffffffff1673ffffffffffffffffffffffffffffffffffffffff167f8be0079c531659141344cd1fd0a4f28419497f9722a3daafe3b4186f6b6457e060405160405180910390a3806000806101000a81548173ffffffffffffffffffffffffffffffffffffffff021916908373ffffffffffffffffffffffffffffffffffffffff16021790555050565b6119b7611c27565b73ffffffffffffffffffffffffffffffffffffffff1660008054906101000a900473ffffffffffffffffffffffffffffffffffffffff1673ffffffffffffffffffffffffffffffffffffffff1614611a77576040517f08c379a00000000000000000000000000000000000000000000000000000000081526004018080602001828103825260208152602001807f4f776e61626c653a2063616c6c6572206973206e6f7420746865206f776e657281525060200191505060405180910390fd5b6000600c549050600160009054906101000a900473ffffffffffffffffffffffffffffffffffffffff1673ffffffffffffffffffffffffffffffffffffffff1663095ea7b330836040518363ffffffff1660e01b8152600401808373ffffffffffffffffffffffffffffffffffffffff16815260200182815260200192505050602060405180830381600087803b158015611b1157600080fd5b505af1158015611b25573d6000803e3d6000fd5b505050506040513d6020811015611b3b57600080fd5b8101908080519060200190929190505050506000600c81905550600160009054906101000a900473ffffffffffffffffffffffffffffffffffffffff1673ffffffffffffffffffffffffffffffffffffffff1663a9059cbb33836040518363ffffffff1660e01b8152600401808373ffffffffffffffffffffffffffffffffffffffff16815260200182815260200192505050602060405180830381600087803b158015611be857600080fd5b505af1158015611bfc573d6000803e3d6000fd5b505050506040513d6020811015611c1257600080fd5b81019080805190602001909291905050505050565b600033905090565b600080828401905083811015611cad576040517f08c379a000000000000000000000000000000000000000000000000000000000815260040180806020018281038252601b8152602001807f536166654d6174683a206164646974696f6e206f766572666c6f77000000000081525060200191505060405180910390fd5b8091505092915050565b6000611cf5600a611ce7846003600088815260200190815260200160002060070154611f8690919063ffffffff16565b61200c90919063ffffffff16565b9050611d366003600085815260200190815260200160002060070154600360008681526020019081526020016000206007015461205690919063ffffffff16565b6003600085815260200190815260200160002060070181905550611d8f6003600085815260200190815260200160002060080154600360008681526020019081526020016000206008015461205690919063ffffffff16565b6003600085815260200190815260200160002060080181905550600160009054906101000a900473ffffffffffffffffffffffffffffffffffffffff1673ffffffffffffffffffffffffffffffffffffffff1663095ea7b330836040518363ffffffff1660e01b8152600401808373ffffffffffffffffffffffffffffffffffffffff16815260200182815260200192505050602060405180830381600087803b158015611e3c57600080fd5b505af1158015611e50573d6000803e3d6000fd5b505050506040513d6020811015611e6657600080fd5b810190808051906020019092919050505050600160009054906101000a900473ffffffffffffffffffffffffffffffffffffffff1673ffffffffffffffffffffffffffffffffffffffff1663a9059cbb6003600086815260200190815260200160002060020160009054906101000a900473ffffffffffffffffffffffffffffffffffffffff16836040518363ffffffff1660e01b8152600401808373ffffffffffffffffffffffffffffffffffffffff16815260200182815260200192505050602060405180830381600087803b158015611f4157600080fd5b505af1158015611f55573d6000803e3d6000fd5b505050506040513d6020811015611f6b57600080fd5b81019080805190602001909291905050505060009050505050565b600080831415611f995760009050612006565b6000828402905082848281611faa57fe5b0414612001576040517f08c379a000000000000000000000000000000000000000000000000000000000815260040180806020018281038252602181526020018061235e6021913960400191505060405180910390fd5b809150505b92915050565b600061204e83836040518060400160405280601a81526020017f536166654d6174683a206469766973696f6e206279207a65726f0000000000008152506120a0565b905092915050565b600061209883836040518060400160405280601e81526020017f536166654d6174683a207375627472616374696f6e206f766572666c6f770000815250612166565b905092915050565b6000808311829061214c576040517f08c379a00000000000000000000000000000000000000000000000000000000081526004018080602001828103825283818151815260200191508051906020019080838360005b838110156121115780820151818401526020810190506120f6565b50505050905090810190601f16801561213e5780820380516001836020036101000a031916815260200191505b509250505060405180910390fd5b50600083858161215857fe5b049050809150509392505050565b6000838311158290612213576040517f08c379a00000000000000000000000000000000000000000000000000000000081526004018080602001828103825283818151815260200191508051906020019080838360005b838110156121d85780820151818401526020810190506121bd565b50505050905090810190601f1680156122055780820380516001836020036101000a031916815260200191505b509250505060405180910390fd5b5060008385039050809150509392505050565b828054600181600116156101000203166002900490600052602060002090601f01602090048101928261225c57600085556122a3565b82601f1061227557805160ff19168380011785556122a3565b828001600101855582156122a3579182015b828111156122a2578251825591602001919060010190612287565b5b5090506122b091906122b4565b5090565b5b808211156122cd5760008160009055506001016122b5565b509056fe4f776e61626c653a206e6577206f776e657220697320746865207a65726f20616464726573736d7573742072656465656d2031303030206f72206d6f726520666c6967687420746f6b656e736d7573742068617665206d6f7265207468616e2030206f7220686176652073756666696369656e7420616d6f756e74206f6620666c6967687420746f6b656e73536166654d6174683a206d756c7469706c69636174696f6e206f766572666c6f776d757374206465706f736974206d6f7265207468616e203020737461626c6520636f696ea2646970667358221220d0bca7d3984d448f1505cc5d2da4d0ea72c69569451115346da869be2de7223d64736f6c63430007050033",
  "immutableReferences": {},
  "source": "pragma solidity 0.7.5;\r\n\r\nimport \"./FlightToken.sol\";\r\nimport \"@openzeppelin/contracts/math/SafeMath.sol\";\r\nimport \"@openzeppelin/contracts/access/Ownable.sol\";\r\nimport \"@openzeppelin/contracts/token/ERC20/IERC20.sol\";\r\n\r\ncontract payTrust is Ownable {\r\n    using SafeMath for uint256;\r\n\r\n    struct Customer {\r\n        uint256 id;\r\n        string name;\r\n        address payable customerAddress;\r\n        uint256 redeemEndTime1;\r\n        uint256 redeemEndTime2;\r\n        uint256 redeemEndTime3;\r\n        uint256 hardEndTime;\r\n        uint256 customerBalanceStableCoin;\r\n        uint256 customerBalanceTokens;\r\n    }\r\n\r\n    IERC20 public USDC;\r\n    FlightToken public flightToken;\r\n\r\n    mapping(uint256 => Customer) public customers;\r\n\r\n    uint256 public nextCustomerId;\r\n    uint256 public redeemTime1;\r\n    uint256 public redeemTime2;\r\n    uint256 public redeemTime3;\r\n    uint256 public deadlineToRedeem;\r\n    uint256 public refundAmount2;\r\n    uint256 public refundAmount3;\r\n    uint256 public refundAmount4;\r\n    uint256 public totalAmountEthForWithdrawal;\r\n\r\n    event DepositSuccessful(\r\n        string indexed name,\r\n        uint256 indexed nextCustomerId\r\n    );\r\n    event RedeemSuccessful(uint256 indexed id, uint256 amount);\r\n\r\n    constructor(address _flightToken, address _usdc) public {\r\n        //initializes the token address\r\n        flightToken = FlightToken(_flightToken);\r\n        USDC = IERC20(_usdc);\r\n    }\r\n\r\n    function resetRedeemTime(\r\n        uint256 time1,\r\n        uint256 time2,\r\n        uint256 time3,\r\n        uint256 _deadlineToRedeem\r\n    ) external onlyOwner() {\r\n        //change redeemTime base\r\n        redeemTime1 = time1;\r\n        redeemTime2 = time2;\r\n        redeemTime3 = time3;\r\n        deadlineToRedeem = _deadlineToRedeem;\r\n    }\r\n\r\n    function setRefundAmount(\r\n        uint256 refund2,\r\n        uint256 refund3,\r\n        uint256 refund4\r\n    ) external onlyOwner() {\r\n        //set how much customer gets back after time limits. \"7\" means customer gets back 70% of initial. \"5\" means 50%\r\n        refundAmount2 = refund2;\r\n        refundAmount3 = refund3;\r\n        refundAmount4 = refund4;\r\n    }\r\n\r\n    function deposit(\r\n        string memory name,\r\n        uint256 tokensToMint,\r\n        uint256 stablecoinAmount,\r\n        address payable customerAddress\r\n    ) external payable {\r\n        //When the customers calls this, the unique properties of their redeem times are updated to tied to them.\r\n        require(stablecoinAmount > 0, \"must deposit more than 0 stable coin\");\r\n\r\n        uint256 _redeemTime1 = redeemTime1;\r\n        uint256 _redeemTime2 = redeemTime2;\r\n        uint256 _redeemTime3 = redeemTime3;\r\n        uint256 _deadlineToRedeem = deadlineToRedeem;\r\n\r\n        _redeemTime1 = _redeemTime1.add(block.timestamp);\r\n        _redeemTime2 = _redeemTime2.add(block.timestamp);\r\n        _redeemTime3 = _redeemTime3.add(block.timestamp);\r\n        _deadlineToRedeem = _deadlineToRedeem.add(block.timestamp);\r\n\r\n        customers[nextCustomerId] = Customer(\r\n            nextCustomerId,\r\n            name,\r\n            customerAddress,\r\n            _redeemTime1,\r\n            _redeemTime2,\r\n            _redeemTime3,\r\n            _deadlineToRedeem,\r\n            stablecoinAmount,\r\n            tokensToMint\r\n        );\r\n        USDC.transferFrom(msg.sender, address(this), stablecoinAmount);\r\n        flightToken.mint(address(this), tokensToMint);\r\n        emit DepositSuccessful(name, nextCustomerId);\r\n        nextCustomerId = nextCustomerId.add(1);\r\n    }\r\n\r\n    function redeem(uint256 id, uint256 amount) external {\r\n        //customers calls this if they want their deposits back. The function will calculate how much they are allowed of their initial deposit...\r\n        //customers get back. Then the function will burn the tokens.\r\n        require(\r\n            customers[id].customerBalanceTokens >= amount,\r\n            \"must have more than 0 or have sufficient amount of flight tokens\"\r\n        );\r\n        require(\r\n            block.timestamp < customers[id].hardEndTime,\r\n            \"Your redeem time is over\"\r\n        );\r\n        require(amount >= 1000, \"must redeem 1000 or more flight tokens\");\r\n\r\n        if (block.timestamp < customers[id].redeemEndTime1) {\r\n            calculateRedeemAmounts(id, 10);\r\n        } else if (block.timestamp < customers[id].redeemEndTime2) {\r\n            calculateRedeemAmounts(id, refundAmount2);\r\n        } else if (block.timestamp < customers[id].redeemEndTime3) {\r\n            calculateRedeemAmounts(id, refundAmount3);\r\n        } else if (block.timestamp < customers[id].hardEndTime) {\r\n            calculateRedeemAmounts(id, refundAmount4);\r\n        }\r\n\r\n        flightToken.burn(address(this), amount);\r\n        emit RedeemSuccessful(id, amount);\r\n    }\r\n\r\n    function withdrawStableCoin(uint256 id) external onlyOwner() {\r\n        require(customers[id].customerBalanceStableCoin > 0);\r\n        require(block.timestamp > customers[id].hardEndTime);\r\n        uint256 toTransfer = customers[id].customerBalanceStableCoin;\r\n        USDC.approve(address(this), toTransfer);\r\n        USDC.transfer(customers[id].customerAddress, toTransfer);\r\n        toTransfer = 0;\r\n    }\r\n\r\n    function calculateAmoutOfAllStableCoinForWithdrawal() external onlyOwner() {\r\n        for (uint256 i = 0; i < nextCustomerId; i++) {\r\n            if (block.timestamp > customers[i].hardEndTime) {\r\n                totalAmountEthForWithdrawal += customers[i]\r\n                    .customerBalanceStableCoin;\r\n                customers[i].customerBalanceStableCoin = 0;\r\n            }\r\n        }\r\n    }\r\n\r\n    function withdrawAllStableCoin() external onlyOwner() {\r\n        uint256 toTransfer = totalAmountEthForWithdrawal;\r\n        USDC.approve(address(this), toTransfer);\r\n        totalAmountEthForWithdrawal = 0;\r\n        USDC.transfer(msg.sender, toTransfer);\r\n    }\r\n\r\n    function calculateRedeemAmounts(uint256 id, uint256 _amount) internal {\r\n        //calculates the amount customers get back when they redeem\r\n        //after every redeemTime period, customers get less and less of their initial deposits\r\n\r\n        // uint toTransfer = (customers[id].customerBalanceETH.mul(_amount)).div(10);\r\n        // customers[id].customerBalanceETH = customers[id].customerBalanceETH.sub(customers[id].customerBalanceETH);\r\n        // customers[id].customerBalanceTokens = customers[id].customerBalanceTokens.sub(customers[id].customerBalanceTokens);\r\n        // customers[id].customerAddress.transfer(toTransfer);\r\n        // toTransfer = 0;\r\n\r\n        uint256 toTransfer =\r\n            (customers[id].customerBalanceStableCoin.mul(_amount)).div(10);\r\n        customers[id].customerBalanceStableCoin = customers[id]\r\n            .customerBalanceStableCoin\r\n            .sub(customers[id].customerBalanceStableCoin);\r\n        customers[id].customerBalanceTokens = customers[id]\r\n            .customerBalanceTokens\r\n            .sub(customers[id].customerBalanceTokens);\r\n        USDC.approve(address(this), toTransfer);\r\n        USDC.transfer(customers[id].customerAddress, toTransfer);\r\n        toTransfer = 0;\r\n    }\r\n}\r\n",
  "sourcePath": "D:/Users/victo/Desktop/Crypto Programming/Ethereum/TrustTravelPay/contracts/PayTrust.sol",
  "compiler": {
    "name": "solc",
    "version": "0.7.5+commit.eb77ed08.Emscripten.clang"
  },
  "schemaVersion": "3.3.2",
  "updatedAt": "2021-01-16T10:22:44.427Z",
  "networkType": "ethereum",
  "devdoc": {
    "kind": "dev",
    "methods": {
      "owner()": {
        "details": "Returns the address of the current owner."
      },
      "renounceOwnership()": {
        "details": "Leaves the contract without owner. It will not be possible to call `onlyOwner` functions anymore. Can only be called by the current owner. NOTE: Renouncing ownership will leave the contract without an owner, thereby removing any functionality that is only available to the owner."
      },
      "transferOwnership(address)": {
        "details": "Transfers ownership of the contract to a new account (`newOwner`). Can only be called by the current owner."
      }
    },
    "version": 1
  },
  "userdoc": {
    "kind": "user",
    "methods": {},
    "version": 1
  }
}