{
  "contractName": "payTrust",
  "abi": [
    {
      "inputs": [
        {
          "internalType": "address",
          "name": "_flightToken",
          "type": "address"
        }
      ],
      "stateMutability": "nonpayable",
      "type": "constructor"
    },
    {
      "anonymous": false,
      "inputs": [
        {
          "indexed": true,
          "internalType": "string",
          "name": "name",
          "type": "string"
        },
        {
          "indexed": true,
          "internalType": "uint256",
          "name": "nextCustomerId",
          "type": "uint256"
        }
      ],
      "name": "DepositSuccessful",
      "type": "event"
    },
    {
      "anonymous": false,
      "inputs": [
        {
          "indexed": true,
          "internalType": "address",
          "name": "previousOwner",
          "type": "address"
        },
        {
          "indexed": true,
          "internalType": "address",
          "name": "newOwner",
          "type": "address"
        }
      ],
      "name": "OwnershipTransferred",
      "type": "event"
    },
    {
      "anonymous": false,
      "inputs": [
        {
          "indexed": true,
          "internalType": "uint256",
          "name": "id",
          "type": "uint256"
        },
        {
          "indexed": false,
          "internalType": "uint256",
          "name": "amount",
          "type": "uint256"
        }
      ],
      "name": "RedeemSuccessful",
      "type": "event"
    },
    {
      "inputs": [
        {
          "internalType": "uint256",
          "name": "",
          "type": "uint256"
        }
      ],
      "name": "customers",
      "outputs": [
        {
          "internalType": "uint256",
          "name": "id",
          "type": "uint256"
        },
        {
          "internalType": "string",
          "name": "name",
          "type": "string"
        },
        {
          "internalType": "address payable",
          "name": "customerAddress",
          "type": "address"
        },
        {
          "internalType": "uint256",
          "name": "redeemEndTime1",
          "type": "uint256"
        },
        {
          "internalType": "uint256",
          "name": "redeemEndTime2",
          "type": "uint256"
        },
        {
          "internalType": "uint256",
          "name": "redeemEndTime3",
          "type": "uint256"
        },
        {
          "internalType": "uint256",
          "name": "hardEndTime",
          "type": "uint256"
        },
        {
          "internalType": "uint256",
          "name": "customerBalanceETH",
          "type": "uint256"
        },
        {
          "internalType": "uint256",
          "name": "customerBalanceTokens",
          "type": "uint256"
        }
      ],
      "stateMutability": "view",
      "type": "function",
      "constant": true
    },
    {
      "inputs": [],
      "name": "deadlineToRedeem",
      "outputs": [
        {
          "internalType": "uint256",
          "name": "",
          "type": "uint256"
        }
      ],
      "stateMutability": "view",
      "type": "function",
      "constant": true
    },
    {
      "inputs": [],
      "name": "flightToken",
      "outputs": [
        {
          "internalType": "contract FlightToken",
          "name": "",
          "type": "address"
        }
      ],
      "stateMutability": "view",
      "type": "function",
      "constant": true
    },
    {
      "inputs": [],
      "name": "nextCustomerId",
      "outputs": [
        {
          "internalType": "uint256",
          "name": "",
          "type": "uint256"
        }
      ],
      "stateMutability": "view",
      "type": "function",
      "constant": true
    },
    {
      "inputs": [],
      "name": "owner",
      "outputs": [
        {
          "internalType": "address",
          "name": "",
          "type": "address"
        }
      ],
      "stateMutability": "view",
      "type": "function",
      "constant": true
    },
    {
      "inputs": [],
      "name": "redeemTime1",
      "outputs": [
        {
          "internalType": "uint256",
          "name": "",
          "type": "uint256"
        }
      ],
      "stateMutability": "view",
      "type": "function",
      "constant": true
    },
    {
      "inputs": [],
      "name": "redeemTime2",
      "outputs": [
        {
          "internalType": "uint256",
          "name": "",
          "type": "uint256"
        }
      ],
      "stateMutability": "view",
      "type": "function",
      "constant": true
    },
    {
      "inputs": [],
      "name": "redeemTime3",
      "outputs": [
        {
          "internalType": "uint256",
          "name": "",
          "type": "uint256"
        }
      ],
      "stateMutability": "view",
      "type": "function",
      "constant": true
    },
    {
      "inputs": [],
      "name": "refundAmount2",
      "outputs": [
        {
          "internalType": "uint256",
          "name": "",
          "type": "uint256"
        }
      ],
      "stateMutability": "view",
      "type": "function",
      "constant": true
    },
    {
      "inputs": [],
      "name": "refundAmount3",
      "outputs": [
        {
          "internalType": "uint256",
          "name": "",
          "type": "uint256"
        }
      ],
      "stateMutability": "view",
      "type": "function",
      "constant": true
    },
    {
      "inputs": [],
      "name": "refundAmount4",
      "outputs": [
        {
          "internalType": "uint256",
          "name": "",
          "type": "uint256"
        }
      ],
      "stateMutability": "view",
      "type": "function",
      "constant": true
    },
    {
      "inputs": [],
      "name": "renounceOwnership",
      "outputs": [],
      "stateMutability": "nonpayable",
      "type": "function"
    },
    {
      "inputs": [],
      "name": "totalAmountEthForWithdrawal",
      "outputs": [
        {
          "internalType": "uint256",
          "name": "",
          "type": "uint256"
        }
      ],
      "stateMutability": "view",
      "type": "function",
      "constant": true
    },
    {
      "inputs": [
        {
          "internalType": "address",
          "name": "newOwner",
          "type": "address"
        }
      ],
      "name": "transferOwnership",
      "outputs": [],
      "stateMutability": "nonpayable",
      "type": "function"
    },
    {
      "inputs": [
        {
          "internalType": "uint256",
          "name": "time1",
          "type": "uint256"
        },
        {
          "internalType": "uint256",
          "name": "time2",
          "type": "uint256"
        },
        {
          "internalType": "uint256",
          "name": "time3",
          "type": "uint256"
        },
        {
          "internalType": "uint256",
          "name": "_deadlineToRedeem",
          "type": "uint256"
        }
      ],
      "name": "resetRedeemTime",
      "outputs": [],
      "stateMutability": "nonpayable",
      "type": "function"
    },
    {
      "inputs": [
        {
          "internalType": "uint256",
          "name": "refund2",
          "type": "uint256"
        },
        {
          "internalType": "uint256",
          "name": "refund3",
          "type": "uint256"
        },
        {
          "internalType": "uint256",
          "name": "refund4",
          "type": "uint256"
        }
      ],
      "name": "setRefundAmount",
      "outputs": [],
      "stateMutability": "nonpayable",
      "type": "function"
    },
    {
      "inputs": [
        {
          "internalType": "string",
          "name": "name",
          "type": "string"
        },
        {
          "internalType": "uint256",
          "name": "tokensToMint",
          "type": "uint256"
        },
        {
          "internalType": "address payable",
          "name": "customerAddress",
          "type": "address"
        }
      ],
      "name": "deposit",
      "outputs": [],
      "stateMutability": "payable",
      "type": "function",
      "payable": true
    },
    {
      "inputs": [
        {
          "internalType": "uint256",
          "name": "id",
          "type": "uint256"
        },
        {
          "internalType": "uint256",
          "name": "amount",
          "type": "uint256"
        }
      ],
      "name": "redeem",
      "outputs": [],
      "stateMutability": "nonpayable",
      "type": "function"
    },
    {
      "inputs": [
        {
          "internalType": "uint256",
          "name": "id",
          "type": "uint256"
        }
      ],
      "name": "withdrawETH",
      "outputs": [],
      "stateMutability": "nonpayable",
      "type": "function"
    },
    {
      "inputs": [],
      "name": "calculateAmoutOfAllETHForWithdrawal",
      "outputs": [],
      "stateMutability": "nonpayable",
      "type": "function"
    },
    {
      "inputs": [],
      "name": "withdrawAllEth",
      "outputs": [],
      "stateMutability": "nonpayable",
      "type": "function"
    }
  ],
  "bytecode": "0x608060405234801561001057600080fd5b50604051611f49380380611f498339818101604052602081101561003357600080fd5b8101908080519060200190929190505050600061005461013960201b60201c565b9050806000806101000a81548173ffffffffffffffffffffffffffffffffffffffff021916908373ffffffffffffffffffffffffffffffffffffffff1602179055508073ffffffffffffffffffffffffffffffffffffffff16600073ffffffffffffffffffffffffffffffffffffffff167f8be0079c531659141344cd1fd0a4f28419497f9722a3daafe3b4186f6b6457e060405160405180910390a35080600160006101000a81548173ffffffffffffffffffffffffffffffffffffffff021916908373ffffffffffffffffffffffffffffffffffffffff16021790555050610141565b600033905090565b611df9806101506000396000f3fe60806040526004361061012a5760003560e01c806378ba83ec116100ab578063ac8f331c1161006f578063ac8f331c14610424578063c0abda2a1461043b578063d63196e81461053d578063def2edd114610622578063f14210a61461064d578063f2fde38b146106885761012a565b806378ba83ec1461031d5780637cbc2373146103485780637de5ca041461038d5780638da5cb5b146103b857806394e8eabd146103f95761012a565b8063541126ae116100f2578063541126ae146101f257806363e1eaa51461021d5780636a78c9cc1461025e578063715018a6146102ad5780637555a84b146102c45761012a565b80630155e8161461012f5780631d4d24e91461015a578063391f8ded146101855780633e380573146101b0578063519af30e146101db575b600080fd5b34801561013b57600080fd5b506101446106d9565b6040518082815260200191505060405180910390f35b34801561016657600080fd5b5061016f6106df565b6040518082815260200191505060405180910390f35b34801561019157600080fd5b5061019a6106e5565b6040518082815260200191505060405180910390f35b3480156101bc57600080fd5b506101c56106eb565b6040518082815260200191505060405180910390f35b3480156101e757600080fd5b506101f06106f1565b005b3480156101fe57600080fd5b50610207610812565b6040518082815260200191505060405180910390f35b34801561022957600080fd5b50610232610818565b604051808273ffffffffffffffffffffffffffffffffffffffff16815260200191505060405180910390f35b34801561026a57600080fd5b506102ab6004803603606081101561028157600080fd5b8101908080359060200190929190803590602001909291908035906020019092919050505061083e565b005b3480156102b957600080fd5b506102c2610920565b005b3480156102d057600080fd5b5061031b600480360360808110156102e757600080fd5b8101908080359060200190929190803590602001909291908035906020019092919080359060200190929190505050610aa6565b005b34801561032957600080fd5b50610332610b90565b6040518082815260200191505060405180910390f35b34801561035457600080fd5b5061038b6004803603604081101561036b57600080fd5b810190808035906020019092919080359060200190929190505050610b96565b005b34801561039957600080fd5b506103a2610e8c565b6040518082815260200191505060405180910390f35b3480156103c457600080fd5b506103cd610e92565b604051808273ffffffffffffffffffffffffffffffffffffffff16815260200191505060405180910390f35b34801561040557600080fd5b5061040e610ebb565b6040518082815260200191505060405180910390f35b34801561043057600080fd5b50610439610ec1565b005b34801561044757600080fd5b506104746004803603602081101561045e57600080fd5b8101908080359060200190929190505050611007565b604051808a8152602001806020018973ffffffffffffffffffffffffffffffffffffffff16815260200188815260200187815260200186815260200185815260200184815260200183815260200182810382528a818151815260200191508051906020019080838360005b838110156104fa5780820151818401526020810190506104df565b50505050905090810190601f1680156105275780820380516001836020036101000a031916815260200191505b509a505050505050505050505060405180910390f35b6106206004803603606081101561055357600080fd5b810190808035906020019064010000000081111561057057600080fd5b82018360208201111561058257600080fd5b803590602001918460018302840111640100000000831117156105a457600080fd5b91908080601f016020809104026020016040519081016040528093929190818152602001838380828437600081840152601f19601f82011690508083019250505050505050919291929080359060200190929190803573ffffffffffffffffffffffffffffffffffffffff16906020019092919050505061110d565b005b34801561062e57600080fd5b50610637611405565b6040518082815260200191505060405180910390f35b34801561065957600080fd5b506106866004803603602081101561067057600080fd5b810190808035906020019092919050505061140b565b005b34801561069457600080fd5b506106d7600480360360208110156106ab57600080fd5b81019080803573ffffffffffffffffffffffffffffffffffffffff1690602001909291905050506115b8565b005b60095481565b60075481565b60085481565b600a5481565b6106f96117c3565b73ffffffffffffffffffffffffffffffffffffffff1660008054906101000a900473ffffffffffffffffffffffffffffffffffffffff1673ffffffffffffffffffffffffffffffffffffffff16146107b9576040517f08c379a00000000000000000000000000000000000000000000000000000000081526004018080602001828103825260208152602001807f4f776e61626c653a2063616c6c6572206973206e6f7420746865206f776e657281525060200191505060405180910390fd5b6000600b5490506000600b819055503373ffffffffffffffffffffffffffffffffffffffff166108fc829081150290604051600060405180830381858888f1935050505015801561080e573d6000803e3d6000fd5b5050565b60055481565b600160009054906101000a900473ffffffffffffffffffffffffffffffffffffffff1681565b6108466117c3565b73ffffffffffffffffffffffffffffffffffffffff1660008054906101000a900473ffffffffffffffffffffffffffffffffffffffff1673ffffffffffffffffffffffffffffffffffffffff1614610906576040517f08c379a00000000000000000000000000000000000000000000000000000000081526004018080602001828103825260208152602001807f4f776e61626c653a2063616c6c6572206973206e6f7420746865206f776e657281525060200191505060405180910390fd5b826008819055508160098190555080600a81905550505050565b6109286117c3565b73ffffffffffffffffffffffffffffffffffffffff1660008054906101000a900473ffffffffffffffffffffffffffffffffffffffff1673ffffffffffffffffffffffffffffffffffffffff16146109e8576040517f08c379a00000000000000000000000000000000000000000000000000000000081526004018080602001828103825260208152602001807f4f776e61626c653a2063616c6c6572206973206e6f7420746865206f776e657281525060200191505060405180910390fd5b600073ffffffffffffffffffffffffffffffffffffffff1660008054906101000a900473ffffffffffffffffffffffffffffffffffffffff1673ffffffffffffffffffffffffffffffffffffffff167f8be0079c531659141344cd1fd0a4f28419497f9722a3daafe3b4186f6b6457e060405160405180910390a360008060006101000a81548173ffffffffffffffffffffffffffffffffffffffff021916908373ffffffffffffffffffffffffffffffffffffffff160217905550565b610aae6117c3565b73ffffffffffffffffffffffffffffffffffffffff1660008054906101000a900473ffffffffffffffffffffffffffffffffffffffff1673ffffffffffffffffffffffffffffffffffffffff1614610b6e576040517f08c379a00000000000000000000000000000000000000000000000000000000081526004018080602001828103825260208152602001807f4f776e61626c653a2063616c6c6572206973206e6f7420746865206f776e657281525060200191505060405180910390fd5b8360048190555082600581905550816006819055508060078190555050505050565b60065481565b8060026000848152602001908152602001600020600801541015610c05576040517f08c379a0000000000000000000000000000000000000000000000000000000008152600401808060200182810382526040815260200180611d636040913960400191505060405180910390fd5b60026000838152602001908152602001600020600601544210610c90576040517f08c379a00000000000000000000000000000000000000000000000000000000081526004018080602001828103825260188152602001807f596f75722072656465656d2074696d65206973206f766572000000000000000081525060200191505060405180910390fd5b6103e8811015610ceb576040517f08c379a0000000000000000000000000000000000000000000000000000000008152600401808060200182810382526026815260200180611d3d6026913960400191505060405180910390fd5b6002600083815260200190815260200160002060030154421015610d1957610d1482600a6117cb565b610da5565b6002600083815260200190815260200160002060040154421015610d4857610d43826008546117cb565b610da4565b6002600083815260200190815260200160002060050154421015610d7757610d72826009546117cb565b610da3565b6002600083815260200190815260200160002060060154421015610da257610da182600a546117cb565b5b5b5b5b600160009054906101000a900473ffffffffffffffffffffffffffffffffffffffff1673ffffffffffffffffffffffffffffffffffffffff16639dc29fac33836040518363ffffffff1660e01b8152600401808373ffffffffffffffffffffffffffffffffffffffff16815260200182815260200192505050600060405180830381600087803b158015610e3857600080fd5b505af1158015610e4c573d6000803e3d6000fd5b50505050817f6a57f287981fd1febbbdc93e2b7ee9c6c441bd052effd191274237362b9de4ba826040518082815260200191505060405180910390a25050565b600b5481565b60008060009054906101000a900473ffffffffffffffffffffffffffffffffffffffff16905090565b60035481565b610ec96117c3565b73ffffffffffffffffffffffffffffffffffffffff1660008054906101000a900473ffffffffffffffffffffffffffffffffffffffff1673ffffffffffffffffffffffffffffffffffffffff1614610f89576040517f08c379a00000000000000000000000000000000000000000000000000000000081526004018080602001828103825260208152602001807f4f776e61626c653a2063616c6c6572206973206e6f7420746865206f776e657281525060200191505060405180910390fd5b60005b600354811015611004576002600082815260200190815260200160002060060154421115610ff7576002600082815260200190815260200160002060070154600b60008282540192505081905550600060026000838152602001908152602001600020600701819055505b8080600101915050610f8c565b50565b6002602052806000526040600020600091509050806000015490806001018054600181600116156101000203166002900480601f0160208091040260200160405190810160405280929190818152602001828054600181600116156101000203166002900480156110b95780601f1061108e576101008083540402835291602001916110b9565b820191906000526020600020905b81548152906001019060200180831161109c57829003601f168201915b5050505050908060020160009054906101000a900473ffffffffffffffffffffffffffffffffffffffff16908060030154908060040154908060050154908060060154908060070154908060080154905089565b6000341161111a57600080fd5b60006004549050600060055490506000600654905060006007549050611149428561194390919063ffffffff16565b935061115e428461194390919063ffffffff16565b9250611173428361194390919063ffffffff16565b9150611188428261194390919063ffffffff16565b905060405180610120016040528060035481526020018881526020018673ffffffffffffffffffffffffffffffffffffffff1681526020018581526020018481526020018381526020018281526020013481526020018781525060026000600354815260200190815260200160002060008201518160000155602082015181600101908051906020019061121d929190611c6b565b5060408201518160020160006101000a81548173ffffffffffffffffffffffffffffffffffffffff021916908373ffffffffffffffffffffffffffffffffffffffff160217905550606082015181600301556080820151816004015560a0820151816005015560c0820151816006015560e082015181600701556101008201518160080155905050600160009054906101000a900473ffffffffffffffffffffffffffffffffffffffff1673ffffffffffffffffffffffffffffffffffffffff166340c10f1933886040518363ffffffff1660e01b8152600401808373ffffffffffffffffffffffffffffffffffffffff16815260200182815260200192505050600060405180830381600087803b15801561133857600080fd5b505af115801561134c573d6000803e3d6000fd5b50505050600354876040518082805190602001908083835b602083106113875780518252602082019150602081019050602083039250611364565b6001836020036101000a03801982511681845116808217855250505050505090500191505060405180910390207f0bbc915e70165a1753811b3b69f88c8c4fce7890aa52b78024f87e07be22d45360405160405180910390a36113f6600160035461194390919063ffffffff16565b60038190555050505050505050565b60045481565b6114136117c3565b73ffffffffffffffffffffffffffffffffffffffff1660008054906101000a900473ffffffffffffffffffffffffffffffffffffffff1673ffffffffffffffffffffffffffffffffffffffff16146114d3576040517f08c379a00000000000000000000000000000000000000000000000000000000081526004018080602001828103825260208152602001807f4f776e61626c653a2063616c6c6572206973206e6f7420746865206f776e657281525060200191505060405180910390fd5b60006002600083815260200190815260200160002060070154116114f657600080fd5b6002600082815260200190815260200160002060060154421161151857600080fd5b6000600260008381526020019081526020016000206007015490506002600083815260200190815260200160002060020160009054906101000a900473ffffffffffffffffffffffffffffffffffffffff1673ffffffffffffffffffffffffffffffffffffffff166108fc829081150290604051600060405180830381858888f193505050501580156115af573d6000803e3d6000fd5b50600090505050565b6115c06117c3565b73ffffffffffffffffffffffffffffffffffffffff1660008054906101000a900473ffffffffffffffffffffffffffffffffffffffff1673ffffffffffffffffffffffffffffffffffffffff1614611680576040517f08c379a00000000000000000000000000000000000000000000000000000000081526004018080602001828103825260208152602001807f4f776e61626c653a2063616c6c6572206973206e6f7420746865206f776e657281525060200191505060405180910390fd5b600073ffffffffffffffffffffffffffffffffffffffff168173ffffffffffffffffffffffffffffffffffffffff161415611706576040517f08c379a0000000000000000000000000000000000000000000000000000000008152600401808060200182810382526026815260200180611d176026913960400191505060405180910390fd5b8073ffffffffffffffffffffffffffffffffffffffff1660008054906101000a900473ffffffffffffffffffffffffffffffffffffffff1673ffffffffffffffffffffffffffffffffffffffff167f8be0079c531659141344cd1fd0a4f28419497f9722a3daafe3b4186f6b6457e060405160405180910390a3806000806101000a81548173ffffffffffffffffffffffffffffffffffffffff021916908373ffffffffffffffffffffffffffffffffffffffff16021790555050565b600033905090565b6000611809600a6117fb8460026000888152602001908152602001600020600701546119cb90919063ffffffff16565b611a5190919063ffffffff16565b905061184a60026000858152602001908152602001600020600701546002600086815260200190815260200160002060070154611a9b90919063ffffffff16565b60026000858152602001908152602001600020600701819055506118a360026000858152602001908152602001600020600801546002600086815260200190815260200160002060080154611a9b90919063ffffffff16565b60026000858152602001908152602001600020600801819055506002600084815260200190815260200160002060020160009054906101000a900473ffffffffffffffffffffffffffffffffffffffff1673ffffffffffffffffffffffffffffffffffffffff166108fc829081150290604051600060405180830381858888f19350505050158015611939573d6000803e3d6000fd5b5060009050505050565b6000808284019050838110156119c1576040517f08c379a000000000000000000000000000000000000000000000000000000000815260040180806020018281038252601b8152602001807f536166654d6174683a206164646974696f6e206f766572666c6f77000000000081525060200191505060405180910390fd5b8091505092915050565b6000808314156119de5760009050611a4b565b60008284029050828482816119ef57fe5b0414611a46576040517f08c379a0000000000000000000000000000000000000000000000000000000008152600401808060200182810382526021815260200180611da36021913960400191505060405180910390fd5b809150505b92915050565b6000611a9383836040518060400160405280601a81526020017f536166654d6174683a206469766973696f6e206279207a65726f000000000000815250611ae5565b905092915050565b6000611add83836040518060400160405280601e81526020017f536166654d6174683a207375627472616374696f6e206f766572666c6f770000815250611bab565b905092915050565b60008083118290611b91576040517f08c379a00000000000000000000000000000000000000000000000000000000081526004018080602001828103825283818151815260200191508051906020019080838360005b83811015611b56578082015181840152602081019050611b3b565b50505050905090810190601f168015611b835780820380516001836020036101000a031916815260200191505b509250505060405180910390fd5b506000838581611b9d57fe5b049050809150509392505050565b6000838311158290611c58576040517f08c379a00000000000000000000000000000000000000000000000000000000081526004018080602001828103825283818151815260200191508051906020019080838360005b83811015611c1d578082015181840152602081019050611c02565b50505050905090810190601f168015611c4a5780820380516001836020036101000a031916815260200191505b509250505060405180910390fd5b5060008385039050809150509392505050565b828054600181600116156101000203166002900490600052602060002090601f016020900481019282611ca15760008555611ce8565b82601f10611cba57805160ff1916838001178555611ce8565b82800160010185558215611ce8579182015b82811115611ce7578251825591602001919060010190611ccc565b5b509050611cf59190611cf9565b5090565b5b80821115611d12576000816000905550600101611cfa565b509056fe4f776e61626c653a206e6577206f776e657220697320746865207a65726f20616464726573736d7573742072656465656d2031303030206f72206d6f726520666c6967687420746f6b656e736d7573742068617665206d6f7265207468616e2030206f7220686176652073756666696369656e7420616d6f756e74206f6620666c6967687420746f6b656e73536166654d6174683a206d756c7469706c69636174696f6e206f766572666c6f77a264697066735822122077d41f11d7884a30ab6e78cad9db9f8595bf42f377bbacb945d1f6ada01de71364736f6c63430007050033",
  "immutableReferences": {},
  "source": "pragma solidity 0.7.5;\r\n\r\nimport \"./FlightToken.sol\";\r\nimport \"@openzeppelin/contracts/math/SafeMath.sol\";\r\nimport \"@openzeppelin/contracts/access/Ownable.sol\";\r\n\r\ncontract payTrust is Ownable{\r\n    \r\n    using SafeMath for uint;\r\n    \r\n   \r\n    struct Customer {\r\n        uint id;\r\n        string name;\r\n        address payable customerAddress;\r\n        uint redeemEndTime1;\r\n        uint redeemEndTime2;\r\n        uint redeemEndTime3;\r\n        uint hardEndTime;\r\n        uint customerBalanceETH;\r\n        uint customerBalanceTokens;\r\n    }\r\n    \r\n    FlightToken public flightToken;\r\n    \r\n    mapping(uint => Customer) public customers;\r\n    \r\n    uint public nextCustomerId;\r\n    uint public redeemTime1;\r\n    uint public redeemTime2;\r\n    uint public redeemTime3;\r\n    uint public deadlineToRedeem;\r\n    uint public refundAmount2;\r\n    uint public refundAmount3;\r\n    uint public refundAmount4;\r\n    uint public totalAmountEthForWithdrawal;\r\n\r\n    event DepositSuccessful(string indexed name, uint indexed nextCustomerId);\r\n    event RedeemSuccessful(uint indexed id, uint amount);\r\n    \r\n    constructor(address _flightToken) public {\r\n        //initializes the token address\r\n        flightToken = FlightToken(_flightToken);\r\n    }\r\n    \r\n    function resetRedeemTime(uint time1, uint time2, uint time3, uint _deadlineToRedeem) external onlyOwner(){\r\n        //change redeemTime base\r\n        redeemTime1 = time1;\r\n        redeemTime2 = time2;\r\n        redeemTime3 = time3;\r\n        deadlineToRedeem = _deadlineToRedeem;\r\n    }\r\n\r\n    function setRefundAmount(uint refund2, uint refund3, uint refund4) external onlyOwner(){\r\n        //set how much customer gets back after time limits. \"7\" means customer gets back 70% of initial. \"5\" means 50%\r\n        refundAmount2 = refund2;\r\n        refundAmount3 = refund3;\r\n        refundAmount4 = refund4;\r\n    }\r\n    \r\n    \r\n    function deposit(string memory name, uint tokensToMint, address payable customerAddress) external payable{\r\n        //When the customers calls this, the unique properties of their redeem times are updated to tied to them.\r\n        require(msg.value > 0);\r\n        \r\n        uint _redeemTime1 = redeemTime1;\r\n        uint _redeemTime2 = redeemTime2;\r\n        uint _redeemTime3 = redeemTime3;\r\n        uint _deadlineToRedeem = deadlineToRedeem;\r\n\r\n        _redeemTime1 = _redeemTime1.add(block.timestamp);\r\n        _redeemTime2 = _redeemTime2.add(block.timestamp);\r\n        _redeemTime3 = _redeemTime3.add(block.timestamp);\r\n        _deadlineToRedeem = _deadlineToRedeem.add(block.timestamp);\r\n\r\n\r\n        customers[nextCustomerId] = Customer(\r\n            nextCustomerId, \r\n            name, \r\n            customerAddress, \r\n            _redeemTime1, \r\n            _redeemTime2, \r\n            _redeemTime3, \r\n            _deadlineToRedeem, \r\n            msg.value, \r\n            tokensToMint\r\n            );\r\n        flightToken.mint(msg.sender, tokensToMint);\r\n        emit DepositSuccessful(name, nextCustomerId);\r\n        nextCustomerId = nextCustomerId.add(1);\r\n    }\r\n\r\n    function redeem(uint id, uint amount) external {\r\n        //customers calls this if they want their deposits back. The function will calculate how much they are allowed of their initial deposit...\r\n        //customers get back. Then the function will burn the tokens.\r\n        require(customers[id].customerBalanceTokens >= amount, \"must have more than 0 or have sufficient amount of flight tokens\");\r\n        require(block.timestamp < customers[id].hardEndTime, \"Your redeem time is over\");\r\n        require(amount >= 1000, \"must redeem 1000 or more flight tokens\");\r\n        \r\n        if(block.timestamp < customers[id].redeemEndTime1) {\r\n        calculateRedeemAmounts(id, 10);\r\n        }\r\n        else if(block.timestamp < customers[id].redeemEndTime2) {\r\n        calculateRedeemAmounts(id, refundAmount2);\r\n        }\r\n        else if(block.timestamp < customers[id].redeemEndTime3) {\r\n        calculateRedeemAmounts(id, refundAmount3);\r\n        }\r\n        else if(block.timestamp < customers[id].hardEndTime) {\r\n        calculateRedeemAmounts(id, refundAmount4);\r\n        }\r\n        \r\n        flightToken.burn(msg.sender, amount);\r\n        emit RedeemSuccessful(id, amount);\r\n    }\r\n    \r\n    function withdrawETH(uint id) external onlyOwner(){\r\n        require(customers[id].customerBalanceETH > 0);\r\n        require(block.timestamp > customers[id].hardEndTime);\r\n        uint toTransfer = customers[id].customerBalanceETH;\r\n        customers[id].customerAddress.transfer(toTransfer);\r\n        toTransfer = 0;\r\n    }\r\n    \r\n    function calculateAmoutOfAllETHForWithdrawal() external onlyOwner(){\r\n        for (uint i=0;i < nextCustomerId; i++) {\r\n            if (block.timestamp > customers[i].hardEndTime) {\r\n                 totalAmountEthForWithdrawal += customers[i].customerBalanceETH;\r\n                 customers[i].customerBalanceETH = 0;\r\n            }\r\n        }\r\n    }\r\n    \r\n    function withdrawAllEth() external onlyOwner() {\r\n        uint toTransfer = totalAmountEthForWithdrawal;\r\n        totalAmountEthForWithdrawal = 0;\r\n        msg.sender.transfer(toTransfer);\r\n    }\r\n    \r\n    function calculateRedeemAmounts(uint id, uint _amount) internal {\r\n        //calculates the amount customers get back when they redeem\r\n        //after every redeemTime period, customers get less and less of their initial deposits\r\n        uint toTransfer = (customers[id].customerBalanceETH.mul(_amount)).div(10);\r\n        customers[id].customerBalanceETH = customers[id].customerBalanceETH.sub(customers[id].customerBalanceETH);\r\n        customers[id].customerBalanceTokens = customers[id].customerBalanceTokens.sub(customers[id].customerBalanceTokens);\r\n        customers[id].customerAddress.transfer(toTransfer);\r\n        toTransfer = 0;\r\n    }\r\n}\r\n\r\n\r\n\r\n\r\n\r\n\r\n\r\n\r\n",
  "sourcePath": "D:/Users/victo/Desktop/Crypto Programming/Ethereum/TrustTravelPay/contracts/PayTrust.sol",
  "compiler": {
    "name": "solc",
    "version": "0.7.5+commit.eb77ed08.Emscripten.clang"
  },
  "schemaVersion": "3.3.1",
  "updatedAt": "2020-12-29T01:02:36.015Z",
  "networkType": "ethereum",
  "devdoc": {
    "kind": "dev",
    "methods": {
      "owner()": {
        "details": "Returns the address of the current owner."
      },
      "renounceOwnership()": {
        "details": "Leaves the contract without owner. It will not be possible to call `onlyOwner` functions anymore. Can only be called by the current owner. NOTE: Renouncing ownership will leave the contract without an owner, thereby removing any functionality that is only available to the owner."
      },
      "transferOwnership(address)": {
        "details": "Transfers ownership of the contract to a new account (`newOwner`). Can only be called by the current owner."
      }
    },
    "version": 1
  },
  "userdoc": {
    "kind": "user",
    "methods": {},
    "version": 1
  }
}